{
  "contractName": "BridgeExecutor",
  "abi": [
    {
      "inputs": [
        {
          "internalType": "address",
          "name": "sourceDepositer",
          "type": "address"
        },
        {
          "internalType": "address",
          "name": "destinationHandler",
          "type": "address"
        }
      ],
      "stateMutability": "nonpayable",
      "type": "constructor"
    },
    {
      "anonymous": false,
      "inputs": [
        {
          "indexed": true,
          "internalType": "address",
          "name": "initiatorExecution",
          "type": "address"
        },
        {
          "indexed": false,
          "internalType": "bytes[]",
          "name": "returnedData",
          "type": "bytes[]"
        }
      ],
      "name": "TxsExecuted",
      "type": "event"
    },
    {
      "stateMutability": "payable",
      "type": "fallback"
    },
    {
      "stateMutability": "payable",
      "type": "receive"
    },
    {
      "inputs": [
        {
          "internalType": "bytes",
          "name": "data",
          "type": "bytes"
        }
      ],
      "name": "execute",
      "outputs": [],
      "stateMutability": "payable",
      "type": "function"
    },
    {
      "inputs": [
        {
          "internalType": "bytes32",
          "name": "resourceID",
          "type": "bytes32"
        },
        {
          "internalType": "address",
          "name": "depositer",
          "type": "address"
        },
        {
          "internalType": "bytes",
          "name": "data",
          "type": "bytes"
        }
      ],
      "name": "processMessageFromHandler",
      "outputs": [],
      "stateMutability": "payable",
      "type": "function"
    },
    {
      "inputs": [],
      "name": "getBalance",
      "outputs": [
        {
          "internalType": "uint256",
          "name": "",
          "type": "uint256"
        }
      ],
      "stateMutability": "view",
      "type": "function"
    }
  ],
  "bytecode": "0x60806040523480156200001157600080fd5b50604051620016be380380620016be83398181016040528101906200003791906200012a565b816000806101000a81548173ffffffffffffffffffffffffffffffffffffffff021916908373ffffffffffffffffffffffffffffffffffffffff16021790555080600160006101000a81548173ffffffffffffffffffffffffffffffffffffffff021916908373ffffffffffffffffffffffffffffffffffffffff160217905550505062000171565b600080fd5b600073ffffffffffffffffffffffffffffffffffffffff82169050919050565b6000620000f282620000c5565b9050919050565b6200010481620000e5565b81146200011057600080fd5b50565b6000815190506200012481620000f9565b92915050565b60008060408385031215620001445762000143620000c0565b5b6000620001548582860162000113565b9250506020620001678582860162000113565b9150509250929050565b61153d80620001816000396000f3fe6080604052600436106100385760003560e01c806309c5eabe1461004157806312065fe01461005d578063c4f90ada146100885761003f565b3661003f57005b005b61005b6004803603810190610056919061065e565b6100a4565b005b34801561006957600080fd5b506100726102e0565b60405161007f91906106c4565b60405180910390f35b6100a2600480360381019061009d9190610773565b6102e8565b005b606080606080606086868101906100bb9190610e38565b80955081965082975083985084995050505050506000855103610113576040517f08c379a000000000000000000000000000000000000000000000000000000000815260040161010a90610f9c565b60405180910390fd5b83518551148015610125575082518551145b8015610132575081518551145b801561013f575080518551145b61017e576040517f08c379a000000000000000000000000000000000000000000000000000000000815260040161017590611008565b60405180910390fd5b60008551905060008167ffffffffffffffff8111156101a05761019f6107f8565b5b6040519080825280602002602001820160405280156101d357816020015b60608152602001906001900390816101be5790505b50905060005b82811015610286576102558882815181106101f7576101f6611028565b5b602002602001015188838151811061021257610211611028565b5b602002602001015188848151811061022d5761022c611028565b5b602002602001015188858151811061024857610247611028565b5b6020026020010151610416565b82828151811061026857610267611028565b5b6020026020010181905250808061027e90611086565b9150506101d9565b503373ffffffffffffffffffffffffffffffffffffffff167f40c0dea2df37ad5610e51787d4954dc7a0b16e02cf47ecdc2718db60fdc6ae4b826040516102cd9190611218565b60405180910390a2505050505050505050565b600047905090565b600160009054906101000a900473ffffffffffffffffffffffffffffffffffffffff1673ffffffffffffffffffffffffffffffffffffffff163373ffffffffffffffffffffffffffffffffffffffff1614610378576040517f08c379a000000000000000000000000000000000000000000000000000000000815260040161036f90611286565b60405180910390fd5b8273ffffffffffffffffffffffffffffffffffffffff1660008054906101000a900473ffffffffffffffffffffffffffffffffffffffff1673ffffffffffffffffffffffffffffffffffffffff1614610406576040517f08c379a00000000000000000000000000000000000000000000000000000000081526004016103fd906112f2565b60405180910390fd5b61041082826100a4565b50505050565b60608347101561045b576040517f08c379a00000000000000000000000000000000000000000000000000000000081526004016104529061135e565b60405180910390fd5b6060600084510361046e578290506104f5565b838360405160240161048091906113c8565b6040516020818303038152906040529060405161049d9190611431565b60405180910390207bffffffffffffffffffffffffffffffffffffffffffffffffffffffff19166020820180517bffffffffffffffffffffffffffffffffffffffffffffffffffffffff838183161783525050505090505b600060608773ffffffffffffffffffffffffffffffffffffffff16878460405161051f9190611484565b60006040518083038185875af1925050503d806000811461055c576040519150601f19603f3d011682016040523d82523d6000602084013e610561565b606091505b5080925081935050506105748282610581565b9350505050949350505050565b60608215610591578190506105df565b6000825111156105a45781518083602001fd5b6040517f08c379a00000000000000000000000000000000000000000000000000000000081526004016105d6906114e7565b60405180910390fd5b92915050565b6000604051905090565b600080fd5b600080fd5b600080fd5b600080fd5b600080fd5b60008083601f84011261061e5761061d6105f9565b5b8235905067ffffffffffffffff81111561063b5761063a6105fe565b5b60208301915083600182028301111561065757610656610603565b5b9250929050565b60008060208385031215610675576106746105ef565b5b600083013567ffffffffffffffff811115610693576106926105f4565b5b61069f85828601610608565b92509250509250929050565b6000819050919050565b6106be816106ab565b82525050565b60006020820190506106d960008301846106b5565b92915050565b6000819050919050565b6106f2816106df565b81146106fd57600080fd5b50565b60008135905061070f816106e9565b92915050565b600073ffffffffffffffffffffffffffffffffffffffff82169050919050565b600061074082610715565b9050919050565b61075081610735565b811461075b57600080fd5b50565b60008135905061076d81610747565b92915050565b6000806000806060858703121561078d5761078c6105ef565b5b600061079b87828801610700565b94505060206107ac8782880161075e565b935050604085013567ffffffffffffffff8111156107cd576107cc6105f4565b5b6107d987828801610608565b925092505092959194509250565b6000601f19601f8301169050919050565b7f4e487b7100000000000000000000000000000000000000000000000000000000600052604160045260246000fd5b610830826107e7565b810181811067ffffffffffffffff8211171561084f5761084e6107f8565b5b80604052505050565b60006108626105e5565b905061086e8282610827565b919050565b600067ffffffffffffffff82111561088e5761088d6107f8565b5b602082029050602081019050919050565b60006108b26108ad84610873565b610858565b905080838252602082019050602084028301858111156108d5576108d4610603565b5b835b818110156108fe57806108ea888261075e565b8452602084019350506020810190506108d7565b5050509392505050565b600082601f83011261091d5761091c6105f9565b5b813561092d84826020860161089f565b91505092915050565b600067ffffffffffffffff821115610951576109506107f8565b5b602082029050602081019050919050565b61096b816106ab565b811461097657600080fd5b50565b60008135905061098881610962565b92915050565b60006109a161099c84610936565b610858565b905080838252602082019050602084028301858111156109c4576109c3610603565b5b835b818110156109ed57806109d98882610979565b8452602084019350506020810190506109c6565b5050509392505050565b600082601f830112610a0c57610a0b6105f9565b5b8135610a1c84826020860161098e565b91505092915050565b600067ffffffffffffffff821115610a4057610a3f6107f8565b5b602082029050602081019050919050565b600080fd5b600067ffffffffffffffff821115610a7157610a706107f8565b5b610a7a826107e7565b9050602081019050919050565b82818337600083830152505050565b6000610aa9610aa484610a56565b610858565b905082815260208101848484011115610ac557610ac4610a51565b5b610ad0848285610a87565b509392505050565b600082601f830112610aed57610aec6105f9565b5b8135610afd848260208601610a96565b91505092915050565b6000610b19610b1484610a25565b610858565b90508083825260208201905060208402830185811115610b3c57610b3b610603565b5b835b81811015610b8357803567ffffffffffffffff811115610b6157610b606105f9565b5b808601610b6e8982610ad8565b85526020850194505050602081019050610b3e565b5050509392505050565b600082601f830112610ba257610ba16105f9565b5b8135610bb2848260208601610b06565b91505092915050565b600067ffffffffffffffff821115610bd657610bd56107f8565b5b602082029050602081019050919050565b600067ffffffffffffffff821115610c0257610c016107f8565b5b610c0b826107e7565b9050602081019050919050565b6000610c2b610c2684610be7565b610858565b905082815260208101848484011115610c4757610c46610a51565b5b610c52848285610a87565b509392505050565b600082601f830112610c6f57610c6e6105f9565b5b8135610c7f848260208601610c18565b91505092915050565b6000610c9b610c9684610bbb565b610858565b90508083825260208201905060208402830185811115610cbe57610cbd610603565b5b835b81811015610d0557803567ffffffffffffffff811115610ce357610ce26105f9565b5b808601610cf08982610c5a565b85526020850194505050602081019050610cc0565b5050509392505050565b600082601f830112610d2457610d236105f9565b5b8135610d34848260208601610c88565b91505092915050565b600067ffffffffffffffff821115610d5857610d576107f8565b5b602082029050602081019050919050565b60008115159050919050565b610d7e81610d69565b8114610d8957600080fd5b50565b600081359050610d9b81610d75565b92915050565b6000610db4610daf84610d3d565b610858565b90508083825260208201905060208402830185811115610dd757610dd6610603565b5b835b81811015610e005780610dec8882610d8c565b845260208401935050602081019050610dd9565b5050509392505050565b600082601f830112610e1f57610e1e6105f9565b5b8135610e2f848260208601610da1565b91505092915050565b600080600080600060a08688031215610e5457610e536105ef565b5b600086013567ffffffffffffffff811115610e7257610e716105f4565b5b610e7e88828901610908565b955050602086013567ffffffffffffffff811115610e9f57610e9e6105f4565b5b610eab888289016109f7565b945050604086013567ffffffffffffffff811115610ecc57610ecb6105f4565b5b610ed888828901610b8d565b935050606086013567ffffffffffffffff811115610ef957610ef86105f4565b5b610f0588828901610d0f565b925050608086013567ffffffffffffffff811115610f2657610f256105f4565b5b610f3288828901610e0a565b9150509295509295909350565b600082825260208201905092915050565b7f494e56414c49445f454d5054595f544152474554530000000000000000000000600082015250565b6000610f86601583610f3f565b9150610f9182610f50565b602082019050919050565b60006020820190508181036000830152610fb581610f79565b9050919050565b7f494e434f4e53495354454e545f504152414d535f4c454e475448000000000000600082015250565b6000610ff2601a83610f3f565b9150610ffd82610fbc565b602082019050919050565b6000602082019050818103600083015261102181610fe5565b9050919050565b7f4e487b7100000000000000000000000000000000000000000000000000000000600052603260045260246000fd5b7f4e487b7100000000000000000000000000000000000000000000000000000000600052601160045260246000fd5b6000611091826106ab565b91507fffffffffffffffffffffffffffffffffffffffffffffffffffffffffffffffff82036110c3576110c2611057565b5b600182019050919050565b600081519050919050565b600082825260208201905092915050565b6000819050602082019050919050565b600081519050919050565b600082825260208201905092915050565b60005b83811015611134578082015181840152602081019050611119565b83811115611143576000848401525b50505050565b6000611154826110fa565b61115e8185611105565b935061116e818560208601611116565b611177816107e7565b840191505092915050565b600061118e8383611149565b905092915050565b6000602082019050919050565b60006111ae826110ce565b6111b881856110d9565b9350836020820285016111ca856110ea565b8060005b8581101561120657848403895281516111e78582611182565b94506111f283611196565b925060208a019950506001810190506111ce565b50829750879550505050505092915050565b6000602082019050818103600083015261123281846111a3565b905092915050565b7f756e617574686f72697a65642064657374696e6174696f6e2068616e646c6572600082015250565b6000611270602083610f3f565b915061127b8261123a565b602082019050919050565b6000602082019050818103600083015261129f81611263565b9050919050565b7f696e636f7272656374206465706f736974657220696e20746865206461746100600082015250565b60006112dc601f83610f3f565b91506112e7826112a6565b602082019050919050565b6000602082019050818103600083015261130b816112cf565b9050919050565b7f4e4f545f454e4f5547485f434f4e54524143545f42414c414e43450000000000600082015250565b6000611348601b83610f3f565b915061135382611312565b602082019050919050565b600060208201905081810360008301526113778161133b565b9050919050565b600082825260208201905092915050565b600061139a826110fa565b6113a4818561137e565b93506113b4818560208601611116565b6113bd816107e7565b840191505092915050565b600060208201905081810360008301526113e2818461138f565b905092915050565b600081519050919050565b600081905092915050565b600061140b826113ea565b61141581856113f5565b9350611425818560208601611116565b80840191505092915050565b600061143d8284611400565b915081905092915050565b600081905092915050565b600061145e826110fa565b6114688185611448565b9350611478818560208601611116565b80840191505092915050565b60006114908284611453565b915081905092915050565b7f4641494c45445f414354494f4e5f455845435554494f4e000000000000000000600082015250565b60006114d1601783610f3f565b91506114dc8261149b565b602082019050919050565b60006020820190508181036000830152611500816114c4565b905091905056fea2646970667358221220f01d831b252da9714074a88276fcb75dd164817e0d46556d4d24d31ff09b90ff64736f6c634300080d0033",
  "immutableReferences": {},
  "source": "// SPDX-License-Identifier: GPL-3.0\n\npragma solidity >=0.7.0 <0.9.0;\n\n/**\n * @title Storage\n * @dev Store & retrieve value in a variable\n */\ncontract BridgeExecutor {\n\n    address private _sourceDepositer;\n    address private _destinationHandler;\n\n    event TxsExecuted(address indexed initiatorExecution, bytes[] returnedData);\n\n    constructor(address sourceDepositer, address destinationHandler) {\n        _sourceDepositer = sourceDepositer;\n        _destinationHandler = destinationHandler;\n    }\n\n    function _executeTransaction(\n        address target,\n        uint256 value,\n        string memory signature,\n        bytes memory data\n    ) internal returns (bytes memory) {\n        require(address(this).balance >= value, 'NOT_ENOUGH_CONTRACT_BALANCE');\n\n        bytes memory callData;\n        if (bytes(signature).length == 0) {\n            callData = data;\n        } else {\n            callData = abi.encodeWithSignature(signature, data);\n        }\n\n        bool success;\n        bytes memory resultData;\n        \n        // solium-disable-next-line security/no-call-value\n        (success, resultData) = target.call{value: value}(callData);\n    \n        return _verifyCallResult(success, resultData);\n    }\n\n    modifier onlyDestinationHandler() {\n        require(msg.sender == _destinationHandler, 'unauthorized destination handler');\n        _;\n    }\n\n    function execute(bytes calldata data) public payable {\n        address[] memory targets;\n        uint256[] memory values;\n        string[] memory signatures;\n        bytes[] memory calldatas;\n        bool[] memory withDelegatecalls;\n\n        (targets, values, signatures, calldatas, withDelegatecalls) = abi.decode(\n        data,\n        (address[], uint256[], string[], bytes[], bool[])\n        );\n\n        require(targets.length != 0, 'INVALID_EMPTY_TARGETS');\n        require(\n            targets.length == values.length &&\n            targets.length == signatures.length &&\n            targets.length == calldatas.length &&\n            targets.length == withDelegatecalls.length,\n            'INCONSISTENT_PARAMS_LENGTH'\n        );\n\n        uint256 numTxs = targets.length;\n\n        bytes[] memory returnedData = new bytes[](numTxs);\n        for (uint256 i = 0; i < numTxs; i++) {\n            returnedData[i] = _executeTransaction(\n                targets[i],\n                values[i],\n                signatures[i],\n                calldatas[i]\n            );\n        }\n        emit TxsExecuted(msg.sender, returnedData);\n    }\n\n    /**\n        The depositer offset will be \n    */\n    function processMessageFromHandler(\n        bytes32 resourceID,\n        address depositer,\n        bytes calldata data\n    ) external payable onlyDestinationHandler {\n        require(_sourceDepositer == depositer, 'incorrect depositer in the data');\n\n        execute(data);\n    }\n\n    function _verifyCallResult(bool success, bytes memory returndata)\n        private\n        pure\n        returns (bytes memory)\n    {\n        if (success) {\n        return returndata;\n        } else {\n        // Look for revert reason and bubble it up if present\n        if (returndata.length > 0) {\n            // The easiest way to bubble the revert reason is using memory via assembly\n\n            // solhint-disable-next-line no-inline-assembly\n            assembly {\n            let returndata_size := mload(returndata)\n            revert(add(32, returndata), returndata_size)\n            }\n        } else {\n            revert('FAILED_ACTION_EXECUTION');\n        }\n        }\n    }\n\n    receive() external payable {}\n\n    fallback() external payable {}\n\n    function getBalance() public view returns (uint) {\n        return address(this).balance;\n    }\n\n}",
  "sourcePath": "/Users/maximvezenov/Documents/ChainSafe/research-projects/chainbridge-generic-txs/contracts/BridgeExecutor.sol",
  "compiler": {
    "name": "solc",
    "version": "0.8.13+commit.abaa5c0e.Emscripten.clang"
  },
  "schemaVersion": "3.4.6",
  "updatedAt": "2022-04-11T03:58:23.640Z",
  "networkType": "ethereum",
  "devdoc": {
    "details": "Store & retrieve value in a variable",
    "kind": "dev",
    "methods": {},
    "title": "Storage",
    "version": 1
  },
  "userdoc": {
    "kind": "user",
    "methods": {
      "processMessageFromHandler(bytes32,address,bytes)": {
        "notice": "The depositer offset will be "
      }
    },
    "version": 1
  }
}