{
  "contractName": "BridgeFungibleToken",
  "abi": [
    {
      "inputs": [
        {
          "internalType": "address",
          "name": "sourceDepositer",
          "type": "address"
        },
        {
          "internalType": "address",
          "name": "destinationHandler",
          "type": "address"
        }
      ],
      "stateMutability": "nonpayable",
      "type": "constructor"
    },
    {
      "anonymous": false,
      "inputs": [
        {
          "indexed": true,
          "internalType": "address",
          "name": "owner",
          "type": "address"
        },
        {
          "indexed": true,
          "internalType": "address",
          "name": "spender",
          "type": "address"
        },
        {
          "indexed": false,
          "internalType": "uint256",
          "name": "value",
          "type": "uint256"
        }
      ],
      "name": "Approval",
      "type": "event"
    },
    {
      "anonymous": false,
      "inputs": [
        {
          "indexed": true,
          "internalType": "address",
          "name": "from",
          "type": "address"
        },
        {
          "indexed": true,
          "internalType": "address",
          "name": "to",
          "type": "address"
        },
        {
          "indexed": false,
          "internalType": "uint256",
          "name": "value",
          "type": "uint256"
        }
      ],
      "name": "Transfer",
      "type": "event"
    },
    {
      "anonymous": false,
      "inputs": [
        {
          "indexed": true,
          "internalType": "address",
          "name": "initiatorExecution",
          "type": "address"
        },
        {
          "indexed": false,
          "internalType": "bytes[]",
          "name": "returnedData",
          "type": "bytes[]"
        }
      ],
      "name": "TxsExecuted",
      "type": "event"
    },
    {
      "stateMutability": "payable",
      "type": "fallback",
      "payable": true
    },
    {
      "inputs": [
        {
          "internalType": "address",
          "name": "owner",
          "type": "address"
        },
        {
          "internalType": "address",
          "name": "spender",
          "type": "address"
        }
      ],
      "name": "allowance",
      "outputs": [
        {
          "internalType": "uint256",
          "name": "",
          "type": "uint256"
        }
      ],
      "stateMutability": "view",
      "type": "function",
      "constant": true
    },
    {
      "inputs": [
        {
          "internalType": "address",
          "name": "spender",
          "type": "address"
        },
        {
          "internalType": "uint256",
          "name": "amount",
          "type": "uint256"
        }
      ],
      "name": "approve",
      "outputs": [
        {
          "internalType": "bool",
          "name": "",
          "type": "bool"
        }
      ],
      "stateMutability": "nonpayable",
      "type": "function"
    },
    {
      "inputs": [
        {
          "internalType": "address",
          "name": "account",
          "type": "address"
        }
      ],
      "name": "balanceOf",
      "outputs": [
        {
          "internalType": "uint256",
          "name": "",
          "type": "uint256"
        }
      ],
      "stateMutability": "view",
      "type": "function",
      "constant": true
    },
    {
      "inputs": [],
      "name": "decimals",
      "outputs": [
        {
          "internalType": "uint8",
          "name": "",
          "type": "uint8"
        }
      ],
      "stateMutability": "view",
      "type": "function",
      "constant": true
    },
    {
      "inputs": [
        {
          "internalType": "address",
          "name": "spender",
          "type": "address"
        },
        {
          "internalType": "uint256",
          "name": "subtractedValue",
          "type": "uint256"
        }
      ],
      "name": "decreaseAllowance",
      "outputs": [
        {
          "internalType": "bool",
          "name": "",
          "type": "bool"
        }
      ],
      "stateMutability": "nonpayable",
      "type": "function"
    },
    {
      "inputs": [
        {
          "internalType": "address",
          "name": "spender",
          "type": "address"
        },
        {
          "internalType": "uint256",
          "name": "addedValue",
          "type": "uint256"
        }
      ],
      "name": "increaseAllowance",
      "outputs": [
        {
          "internalType": "bool",
          "name": "",
          "type": "bool"
        }
      ],
      "stateMutability": "nonpayable",
      "type": "function"
    },
    {
      "inputs": [],
      "name": "name",
      "outputs": [
        {
          "internalType": "string",
          "name": "",
          "type": "string"
        }
      ],
      "stateMutability": "view",
      "type": "function",
      "constant": true
    },
    {
      "inputs": [],
      "name": "symbol",
      "outputs": [
        {
          "internalType": "string",
          "name": "",
          "type": "string"
        }
      ],
      "stateMutability": "view",
      "type": "function",
      "constant": true
    },
    {
      "inputs": [],
      "name": "totalSupply",
      "outputs": [
        {
          "internalType": "uint256",
          "name": "",
          "type": "uint256"
        }
      ],
      "stateMutability": "view",
      "type": "function",
      "constant": true
    },
    {
      "inputs": [
        {
          "internalType": "address",
          "name": "to",
          "type": "address"
        },
        {
          "internalType": "uint256",
          "name": "amount",
          "type": "uint256"
        }
      ],
      "name": "transfer",
      "outputs": [
        {
          "internalType": "bool",
          "name": "",
          "type": "bool"
        }
      ],
      "stateMutability": "nonpayable",
      "type": "function"
    },
    {
      "inputs": [
        {
          "internalType": "address",
          "name": "from",
          "type": "address"
        },
        {
          "internalType": "address",
          "name": "to",
          "type": "address"
        },
        {
          "internalType": "uint256",
          "name": "amount",
          "type": "uint256"
        }
      ],
      "name": "transferFrom",
      "outputs": [
        {
          "internalType": "bool",
          "name": "",
          "type": "bool"
        }
      ],
      "stateMutability": "nonpayable",
      "type": "function"
    },
    {
      "stateMutability": "payable",
      "type": "receive",
      "payable": true
    },
    {
      "inputs": [
        {
          "internalType": "bytes32",
          "name": "resourceID",
          "type": "bytes32"
        },
        {
          "internalType": "address",
          "name": "depositer",
          "type": "address"
        },
        {
          "internalType": "bytes",
          "name": "data",
          "type": "bytes"
        }
      ],
      "name": "processMessageFromHandler",
      "outputs": [],
      "stateMutability": "payable",
      "type": "function",
      "payable": true
    },
    {
      "inputs": [],
      "name": "getBalance",
      "outputs": [
        {
          "internalType": "uint256",
          "name": "",
          "type": "uint256"
        }
      ],
      "stateMutability": "view",
      "type": "function",
      "constant": true
    }
  ],
  "bytecode": "0x60806040523480156200001157600080fd5b5060405162001cfb38038062001cfb83398181016040528101906200003791906200027b565b6040518060400160405280600581526020017f44756d6d790000000000000000000000000000000000000000000000000000008152506040518060400160405280600681526020017f44455243323000000000000000000000000000000000000000000000000000008152508160039080519060200190620000bb92919062000161565b508060049080519060200190620000d492919062000161565b50505081600560006101000a81548173ffffffffffffffffffffffffffffffffffffffff021916908373ffffffffffffffffffffffffffffffffffffffff16021790555080600660006101000a81548173ffffffffffffffffffffffffffffffffffffffff021916908373ffffffffffffffffffffffffffffffffffffffff160217905550505062000326565b8280546200016f90620002f1565b90600052602060002090601f016020900481019282620001935760008555620001df565b82601f10620001ae57805160ff1916838001178555620001df565b82800160010185558215620001df579182015b82811115620001de578251825591602001919060010190620001c1565b5b509050620001ee9190620001f2565b5090565b5b808211156200020d576000816000905550600101620001f3565b5090565b600080fd5b600073ffffffffffffffffffffffffffffffffffffffff82169050919050565b6000620002438262000216565b9050919050565b620002558162000236565b81146200026157600080fd5b50565b60008151905062000275816200024a565b92915050565b6000806040838503121562000295576200029462000211565b5b6000620002a58582860162000264565b9250506020620002b88582860162000264565b9150509250929050565b7f4e487b7100000000000000000000000000000000000000000000000000000000600052602260045260246000fd5b600060028204905060018216806200030a57607f821691505b60208210810362000320576200031f620002c2565b5b50919050565b6119c580620003366000396000f3fe6080604052600436106100c65760003560e01c8063395093511161007f578063a457c2d711610059578063a457c2d71461029a578063a9059cbb146102d7578063c4f90ada14610314578063dd62ed3e14610330576100cd565b806339509351146101f557806370a082311461023257806395d89b411461026f576100cd565b806306fdde03146100cf578063095ea7b3146100fa57806312065fe01461013757806318160ddd1461016257806323b872dd1461018d578063313ce567146101ca576100cd565b366100cd57005b005b3480156100db57600080fd5b506100e461036d565b6040516100f19190610faa565b60405180910390f35b34801561010657600080fd5b50610121600480360381019061011c919061106a565b6103ff565b60405161012e91906110c5565b60405180910390f35b34801561014357600080fd5b5061014c610422565b60405161015991906110ef565b60405180910390f35b34801561016e57600080fd5b5061017761042a565b60405161018491906110ef565b60405180910390f35b34801561019957600080fd5b506101b460048036038101906101af919061110a565b610434565b6040516101c191906110c5565b60405180910390f35b3480156101d657600080fd5b506101df610463565b6040516101ec9190611179565b60405180910390f35b34801561020157600080fd5b5061021c6004803603810190610217919061106a565b61046c565b60405161022991906110c5565b60405180910390f35b34801561023e57600080fd5b5061025960048036038101906102549190611194565b610516565b60405161026691906110ef565b60405180910390f35b34801561027b57600080fd5b5061028461055e565b6040516102919190610faa565b60405180910390f35b3480156102a657600080fd5b506102c160048036038101906102bc919061106a565b6105f0565b6040516102ce91906110c5565b60405180910390f35b3480156102e357600080fd5b506102fe60048036038101906102f9919061106a565b6106da565b60405161030b91906110c5565b60405180910390f35b61032e6004803603810190610329919061125c565b6106fd565b005b34801561033c57600080fd5b50610357600480360381019061035291906112d0565b610845565b60405161036491906110ef565b60405180910390f35b60606003805461037c9061133f565b80601f01602080910402602001604051908101604052809291908181526020018280546103a89061133f565b80156103f55780601f106103ca576101008083540402835291602001916103f5565b820191906000526020600020905b8154815290600101906020018083116103d857829003601f168201915b5050505050905090565b60008061040a6108cc565b90506104178185856108d4565b600191505092915050565b600047905090565b6000600254905090565b60008061043f6108cc565b905061044c858285610a9d565b610457858585610b29565b60019150509392505050565b60006012905090565b6000806104776108cc565b905061050b818585600160008673ffffffffffffffffffffffffffffffffffffffff1673ffffffffffffffffffffffffffffffffffffffff16815260200190815260200160002060008973ffffffffffffffffffffffffffffffffffffffff1673ffffffffffffffffffffffffffffffffffffffff16815260200190815260200160002054610506919061139f565b6108d4565b600191505092915050565b60008060008373ffffffffffffffffffffffffffffffffffffffff1673ffffffffffffffffffffffffffffffffffffffff168152602001908152602001600020549050919050565b60606004805461056d9061133f565b80601f01602080910402602001604051908101604052809291908181526020018280546105999061133f565b80156105e65780601f106105bb576101008083540402835291602001916105e6565b820191906000526020600020905b8154815290600101906020018083116105c957829003601f168201915b5050505050905090565b6000806105fb6108cc565b90506000600160008373ffffffffffffffffffffffffffffffffffffffff1673ffffffffffffffffffffffffffffffffffffffff16815260200190815260200160002060008673ffffffffffffffffffffffffffffffffffffffff1673ffffffffffffffffffffffffffffffffffffffff168152602001908152602001600020549050838110156106c1576040517f08c379a00000000000000000000000000000000000000000000000000000000081526004016106b890611467565b60405180910390fd5b6106ce82868684036108d4565b60019250505092915050565b6000806106e56108cc565b90506106f2818585610b29565b600191505092915050565b600660009054906101000a900473ffffffffffffffffffffffffffffffffffffffff1673ffffffffffffffffffffffffffffffffffffffff163373ffffffffffffffffffffffffffffffffffffffff161461078d576040517f08c379a0000000000000000000000000000000000000000000000000000000008152600401610784906114d3565b60405180910390fd5b8273ffffffffffffffffffffffffffffffffffffffff16600560009054906101000a900473ffffffffffffffffffffffffffffffffffffffff1673ffffffffffffffffffffffffffffffffffffffff161461081d576040517f08c379a00000000000000000000000000000000000000000000000000000000081526004016108149061153f565b60405180910390fd5b600080838381019061082f919061159d565b9150915061083d8282610da8565b505050505050565b6000600160008473ffffffffffffffffffffffffffffffffffffffff1673ffffffffffffffffffffffffffffffffffffffff16815260200190815260200160002060008373ffffffffffffffffffffffffffffffffffffffff1673ffffffffffffffffffffffffffffffffffffffff16815260200190815260200160002054905092915050565b600033905090565b600073ffffffffffffffffffffffffffffffffffffffff168373ffffffffffffffffffffffffffffffffffffffff1603610943576040517f08c379a000000000000000000000000000000000000000000000000000000000815260040161093a9061164f565b60405180910390fd5b600073ffffffffffffffffffffffffffffffffffffffff168273ffffffffffffffffffffffffffffffffffffffff16036109b2576040517f08c379a00000000000000000000000000000000000000000000000000000000081526004016109a9906116e1565b60405180910390fd5b80600160008573ffffffffffffffffffffffffffffffffffffffff1673ffffffffffffffffffffffffffffffffffffffff16815260200190815260200160002060008473ffffffffffffffffffffffffffffffffffffffff1673ffffffffffffffffffffffffffffffffffffffff168152602001908152602001600020819055508173ffffffffffffffffffffffffffffffffffffffff168373ffffffffffffffffffffffffffffffffffffffff167f8c5be1e5ebec7d5bd14f71427d1e84f3dd0314c0f7b2291e5b200ac8c7c3b92583604051610a9091906110ef565b60405180910390a3505050565b6000610aa98484610845565b90507fffffffffffffffffffffffffffffffffffffffffffffffffffffffffffffffff8114610b235781811015610b15576040517f08c379a0000000000000000000000000000000000000000000000000000000008152600401610b0c9061174d565b60405180910390fd5b610b2284848484036108d4565b5b50505050565b600073ffffffffffffffffffffffffffffffffffffffff168373ffffffffffffffffffffffffffffffffffffffff1603610b98576040517f08c379a0000000000000000000000000000000000000000000000000000000008152600401610b8f906117df565b60405180910390fd5b600073ffffffffffffffffffffffffffffffffffffffff168273ffffffffffffffffffffffffffffffffffffffff1603610c07576040517f08c379a0000000000000000000000000000000000000000000000000000000008152600401610bfe90611871565b60405180910390fd5b610c12838383610f07565b60008060008573ffffffffffffffffffffffffffffffffffffffff1673ffffffffffffffffffffffffffffffffffffffff16815260200190815260200160002054905081811015610c98576040517f08c379a0000000000000000000000000000000000000000000000000000000008152600401610c8f90611903565b60405180910390fd5b8181036000808673ffffffffffffffffffffffffffffffffffffffff1673ffffffffffffffffffffffffffffffffffffffff16815260200190815260200160002081905550816000808573ffffffffffffffffffffffffffffffffffffffff1673ffffffffffffffffffffffffffffffffffffffff1681526020019081526020016000206000828254610d2b919061139f565b925050819055508273ffffffffffffffffffffffffffffffffffffffff168473ffffffffffffffffffffffffffffffffffffffff167fddf252ad1be2c89b69c2b068fc378daa952ba7f163c4a11628f55a4df523b3ef84604051610d8f91906110ef565b60405180910390a3610da2848484610f0c565b50505050565b600073ffffffffffffffffffffffffffffffffffffffff168273ffffffffffffffffffffffffffffffffffffffff1603610e17576040517f08c379a0000000000000000000000000000000000000000000000000000000008152600401610e0e9061196f565b60405180910390fd5b610e2360008383610f07565b8060026000828254610e35919061139f565b92505081905550806000808473ffffffffffffffffffffffffffffffffffffffff1673ffffffffffffffffffffffffffffffffffffffff1681526020019081526020016000206000828254610e8a919061139f565b925050819055508173ffffffffffffffffffffffffffffffffffffffff16600073ffffffffffffffffffffffffffffffffffffffff167fddf252ad1be2c89b69c2b068fc378daa952ba7f163c4a11628f55a4df523b3ef83604051610eef91906110ef565b60405180910390a3610f0360008383610f0c565b5050565b505050565b505050565b600081519050919050565b600082825260208201905092915050565b60005b83811015610f4b578082015181840152602081019050610f30565b83811115610f5a576000848401525b50505050565b6000601f19601f8301169050919050565b6000610f7c82610f11565b610f868185610f1c565b9350610f96818560208601610f2d565b610f9f81610f60565b840191505092915050565b60006020820190508181036000830152610fc48184610f71565b905092915050565b600080fd5b600080fd5b600073ffffffffffffffffffffffffffffffffffffffff82169050919050565b600061100182610fd6565b9050919050565b61101181610ff6565b811461101c57600080fd5b50565b60008135905061102e81611008565b92915050565b6000819050919050565b61104781611034565b811461105257600080fd5b50565b6000813590506110648161103e565b92915050565b6000806040838503121561108157611080610fcc565b5b600061108f8582860161101f565b92505060206110a085828601611055565b9150509250929050565b60008115159050919050565b6110bf816110aa565b82525050565b60006020820190506110da60008301846110b6565b92915050565b6110e981611034565b82525050565b600060208201905061110460008301846110e0565b92915050565b60008060006060848603121561112357611122610fcc565b5b60006111318682870161101f565b93505060206111428682870161101f565b925050604061115386828701611055565b9150509250925092565b600060ff82169050919050565b6111738161115d565b82525050565b600060208201905061118e600083018461116a565b92915050565b6000602082840312156111aa576111a9610fcc565b5b60006111b88482850161101f565b91505092915050565b6000819050919050565b6111d4816111c1565b81146111df57600080fd5b50565b6000813590506111f1816111cb565b92915050565b600080fd5b600080fd5b600080fd5b60008083601f84011261121c5761121b6111f7565b5b8235905067ffffffffffffffff811115611239576112386111fc565b5b60208301915083600182028301111561125557611254611201565b5b9250929050565b6000806000806060858703121561127657611275610fcc565b5b6000611284878288016111e2565b94505060206112958782880161101f565b935050604085013567ffffffffffffffff8111156112b6576112b5610fd1565b5b6112c287828801611206565b925092505092959194509250565b600080604083850312156112e7576112e6610fcc565b5b60006112f58582860161101f565b92505060206113068582860161101f565b9150509250929050565b7f4e487b7100000000000000000000000000000000000000000000000000000000600052602260045260246000fd5b6000600282049050600182168061135757607f821691505b60208210810361136a57611369611310565b5b50919050565b7f4e487b7100000000000000000000000000000000000000000000000000000000600052601160045260246000fd5b60006113aa82611034565b91506113b583611034565b9250827fffffffffffffffffffffffffffffffffffffffffffffffffffffffffffffffff038211156113ea576113e9611370565b5b828201905092915050565b7f45524332303a2064656372656173656420616c6c6f77616e63652062656c6f7760008201527f207a65726f000000000000000000000000000000000000000000000000000000602082015250565b6000611451602583610f1c565b915061145c826113f5565b604082019050919050565b6000602082019050818103600083015261148081611444565b9050919050565b7f756e617574686f72697a65642064657374696e6174696f6e2068616e646c6572600082015250565b60006114bd602083610f1c565b91506114c882611487565b602082019050919050565b600060208201905081810360008301526114ec816114b0565b9050919050565b7f696e636f7272656374206465706f736974657220696e20746865206461746100600082015250565b6000611529601f83610f1c565b9150611534826114f3565b602082019050919050565b600060208201905081810360008301526115588161151c565b9050919050565b600061156a82610fd6565b9050919050565b61157a8161155f565b811461158557600080fd5b50565b60008135905061159781611571565b92915050565b600080604083850312156115b4576115b3610fcc565b5b60006115c285828601611588565b92505060206115d385828601611055565b9150509250929050565b7f45524332303a20617070726f76652066726f6d20746865207a65726f2061646460008201527f7265737300000000000000000000000000000000000000000000000000000000602082015250565b6000611639602483610f1c565b9150611644826115dd565b604082019050919050565b600060208201905081810360008301526116688161162c565b9050919050565b7f45524332303a20617070726f766520746f20746865207a65726f20616464726560008201527f7373000000000000000000000000000000000000000000000000000000000000602082015250565b60006116cb602283610f1c565b91506116d68261166f565b604082019050919050565b600060208201905081810360008301526116fa816116be565b9050919050565b7f45524332303a20696e73756666696369656e7420616c6c6f77616e6365000000600082015250565b6000611737601d83610f1c565b915061174282611701565b602082019050919050565b600060208201905081810360008301526117668161172a565b9050919050565b7f45524332303a207472616e736665722066726f6d20746865207a65726f20616460008201527f6472657373000000000000000000000000000000000000000000000000000000602082015250565b60006117c9602583610f1c565b91506117d48261176d565b604082019050919050565b600060208201905081810360008301526117f8816117bc565b9050919050565b7f45524332303a207472616e7366657220746f20746865207a65726f206164647260008201527f6573730000000000000000000000000000000000000000000000000000000000602082015250565b600061185b602383610f1c565b9150611866826117ff565b604082019050919050565b6000602082019050818103600083015261188a8161184e565b9050919050565b7f45524332303a207472616e7366657220616d6f756e742065786365656473206260008201527f616c616e63650000000000000000000000000000000000000000000000000000602082015250565b60006118ed602683610f1c565b91506118f882611891565b604082019050919050565b6000602082019050818103600083015261191c816118e0565b9050919050565b7f45524332303a206d696e7420746f20746865207a65726f206164647265737300600082015250565b6000611959601f83610f1c565b915061196482611923565b602082019050919050565b600060208201905081810360008301526119888161194c565b905091905056fea2646970667358221220fd6d83b0163c1e3f67f6e94a69dfd7e2ffc275d68c62877cfaf402aa6b73b67664736f6c634300080d0033",
  "immutableReferences": {},
  "source": "// SPDX-License-Identifier: GPL-3.0\n\npragma solidity >=0.7.0 <0.9.0;\n\nimport \"@openzeppelin/contracts/token/ERC20/ERC20.sol\";\n\n/**\n * @title Storage\n * @dev Store & retrieve value in a variable\n */\ncontract BridgeFungibleToken is ERC20 {\n\n    address private _sourceDepositer;\n    address private _destinationHandler;\n\n    event TxsExecuted(address indexed initiatorExecution, bytes[] returnedData);\n\n    constructor(address sourceDepositer, address destinationHandler) ERC20(\"Dummy\", \"DERC20\") {\n        _sourceDepositer = sourceDepositer; \n        _destinationHandler = destinationHandler;\n        // _mint(msg.sender, initialSupply);\n    }\n\n    modifier onlyDestinationHandler() {\n        require(msg.sender == _destinationHandler, 'unauthorized destination handler');\n        _;\n    }\n\n    /**\n        The depositer offset will be specified in the calldata passed to the generic handler\n    */\n    function processMessageFromHandler(\n        bytes32 resourceID,\n        address depositer,\n        bytes calldata data\n    ) external payable onlyDestinationHandler {\n        require(_sourceDepositer == depositer, 'incorrect depositer in the data');\n\n        (address _toAddress, uint256 _amount) = abi.decode(data, (address, uint256));\n\n        _mint(_toAddress, _amount);\n    }\n\n    receive() external payable {}\n\n    fallback() external payable {}\n\n    function getBalance() public view returns (uint) {\n        return address(this).balance;\n    }\n\n}",
  "sourcePath": "/Users/maximvezenov/Documents/ChainSafe/research-projects/chainbridge-generic-txs/contracts/BridgeFungibleToken.sol",
  "compiler": {
    "name": "solc",
    "version": "0.8.13+commit.abaa5c0e.Emscripten.clang"
  },
  "schemaVersion": "3.4.6",
  "updatedAt": "2022-04-11T03:58:23.670Z",
  "networkType": "ethereum",
  "devdoc": {
    "details": "Store & retrieve value in a variable",
    "kind": "dev",
    "methods": {
      "allowance(address,address)": {
        "details": "See {IERC20-allowance}."
      },
      "approve(address,uint256)": {
        "details": "See {IERC20-approve}. NOTE: If `amount` is the maximum `uint256`, the allowance is not updated on `transferFrom`. This is semantically equivalent to an infinite approval. Requirements: - `spender` cannot be the zero address."
      },
      "balanceOf(address)": {
        "details": "See {IERC20-balanceOf}."
      },
      "decimals()": {
        "details": "Returns the number of decimals used to get its user representation. For example, if `decimals` equals `2`, a balance of `505` tokens should be displayed to a user as `5.05` (`505 / 10 ** 2`). Tokens usually opt for a value of 18, imitating the relationship between Ether and Wei. This is the value {ERC20} uses, unless this function is overridden; NOTE: This information is only used for _display_ purposes: it in no way affects any of the arithmetic of the contract, including {IERC20-balanceOf} and {IERC20-transfer}."
      },
      "decreaseAllowance(address,uint256)": {
        "details": "Atomically decreases the allowance granted to `spender` by the caller. This is an alternative to {approve} that can be used as a mitigation for problems described in {IERC20-approve}. Emits an {Approval} event indicating the updated allowance. Requirements: - `spender` cannot be the zero address. - `spender` must have allowance for the caller of at least `subtractedValue`."
      },
      "increaseAllowance(address,uint256)": {
        "details": "Atomically increases the allowance granted to `spender` by the caller. This is an alternative to {approve} that can be used as a mitigation for problems described in {IERC20-approve}. Emits an {Approval} event indicating the updated allowance. Requirements: - `spender` cannot be the zero address."
      },
      "name()": {
        "details": "Returns the name of the token."
      },
      "symbol()": {
        "details": "Returns the symbol of the token, usually a shorter version of the name."
      },
      "totalSupply()": {
        "details": "See {IERC20-totalSupply}."
      },
      "transfer(address,uint256)": {
        "details": "See {IERC20-transfer}. Requirements: - `to` cannot be the zero address. - the caller must have a balance of at least `amount`."
      },
      "transferFrom(address,address,uint256)": {
        "details": "See {IERC20-transferFrom}. Emits an {Approval} event indicating the updated allowance. This is not required by the EIP. See the note at the beginning of {ERC20}. NOTE: Does not update the allowance if the current allowance is the maximum `uint256`. Requirements: - `from` and `to` cannot be the zero address. - `from` must have a balance of at least `amount`. - the caller must have allowance for ``from``'s tokens of at least `amount`."
      }
    },
    "title": "Storage",
    "version": 1
  },
  "userdoc": {
    "kind": "user",
    "methods": {
      "processMessageFromHandler(bytes32,address,bytes)": {
        "notice": "The depositer offset will be specified in the calldata passed to the generic handler"
      }
    },
    "version": 1
  }
}