{
  "contractName": "Encoder",
  "abi": [
    {
      "inputs": [],
      "stateMutability": "nonpayable",
      "type": "constructor"
    },
    {
      "inputs": [],
      "name": "encode",
      "outputs": [
        {
          "internalType": "bytes",
          "name": "",
          "type": "bytes"
        }
      ],
      "stateMutability": "pure",
      "type": "function"
    }
  ],
  "bytecode": "0x608060405234801561001057600080fd5b506109f5806100206000396000f3fe608060405234801561001057600080fd5b506004361061002b5760003560e01c8063bd14598f14610030575b600080fd5b61003861004e565b6040516100459190610424565b60405180910390f35b60606000600167ffffffffffffffff81111561006d5761006c610446565b5b60405190808252806020026020018201604052801561009b5781602001602082028036833780820191505090505b5090506000600167ffffffffffffffff8111156100bb576100ba610446565b5b6040519080825280602002602001820160405280156100e95781602001602082028036833780820191505090505b5090506000600167ffffffffffffffff81111561010957610108610446565b5b60405190808252806020026020018201604052801561013c57816020015b60608152602001906001900390816101275790505b5090506000600167ffffffffffffffff81111561015c5761015b610446565b5b60405190808252806020026020018201604052801561018f57816020015b606081526020019060019003908161017a5790505b5090506000600167ffffffffffffffff8111156101af576101ae610446565b5b6040519080825280602002602001820160405280156101dd5781602001602082028036833780820191505090505b509050739473425c4df4de1a75d0da949aa907ac100509298560008151811061020957610208610475565b5b602002602001019073ffffffffffffffffffffffffffffffffffffffff16908173ffffffffffffffffffffffffffffffffffffffff168152505063773594008460008151811061025c5761025b610475565b5b6020026020010181815250506040518060400160405280600e81526020017f73746f72652875696e7432353629000000000000000000000000000000000000815250836000815181106102b2576102b1610475565b5b602002602001018190525061019067ffffffffffffffff8111156102d9576102d8610446565b5b6040519080825280601f01601f19166020018201604052801561030b5781602001600182028036833780820191505090505b50826000815181106103205761031f610475565b5b602002602001018190525060008160008151811061034157610340610475565b5b6020026020010190151590811515815250506000858585858560405160200161036e959493929190610949565b604051602081830303815290604052905080965050505050505090565b600081519050919050565b600082825260208201905092915050565b60005b838110156103c55780820151818401526020810190506103aa565b838111156103d4576000848401525b50505050565b6000601f19601f8301169050919050565b60006103f68261038b565b6104008185610396565b93506104108185602086016103a7565b610419816103da565b840191505092915050565b6000602082019050818103600083015261043e81846103eb565b905092915050565b7f4e487b7100000000000000000000000000000000000000000000000000000000600052604160045260246000fd5b7f4e487b7100000000000000000000000000000000000000000000000000000000600052603260045260246000fd5b600081519050919050565b600082825260208201905092915050565b6000819050602082019050919050565b600073ffffffffffffffffffffffffffffffffffffffff82169050919050565b60006104fb826104d0565b9050919050565b61050b816104f0565b82525050565b600061051d8383610502565b60208301905092915050565b6000602082019050919050565b6000610541826104a4565b61054b81856104af565b9350610556836104c0565b8060005b8381101561058757815161056e8882610511565b975061057983610529565b92505060018101905061055a565b5085935050505092915050565b600081519050919050565b600082825260208201905092915050565b6000819050602082019050919050565b6000819050919050565b6105d3816105c0565b82525050565b60006105e583836105ca565b60208301905092915050565b6000602082019050919050565b600061060982610594565b610613818561059f565b935061061e836105b0565b8060005b8381101561064f57815161063688826105d9565b9750610641836105f1565b925050600181019050610622565b5085935050505092915050565b600081519050919050565b600082825260208201905092915050565b6000819050602082019050919050565b600081519050919050565b600082825260208201905092915050565b60006106af82610688565b6106b98185610693565b93506106c98185602086016103a7565b6106d2816103da565b840191505092915050565b60006106e983836106a4565b905092915050565b6000602082019050919050565b60006107098261065c565b6107138185610667565b93508360208202850161072585610678565b8060005b85811015610761578484038952815161074285826106dd565b945061074d836106f1565b925060208a01995050600181019050610729565b50829750879550505050505092915050565b600081519050919050565b600082825260208201905092915050565b6000819050602082019050919050565b600082825260208201905092915050565b60006107bb8261038b565b6107c5818561079f565b93506107d58185602086016103a7565b6107de816103da565b840191505092915050565b60006107f583836107b0565b905092915050565b6000602082019050919050565b600061081582610773565b61081f818561077e565b9350836020820285016108318561078f565b8060005b8581101561086d578484038952815161084e85826107e9565b9450610859836107fd565b925060208a01995050600181019050610835565b50829750879550505050505092915050565b600081519050919050565b600082825260208201905092915050565b6000819050602082019050919050565b60008115159050919050565b6108c0816108ab565b82525050565b60006108d283836108b7565b60208301905092915050565b6000602082019050919050565b60006108f68261087f565b610900818561088a565b935061090b8361089b565b8060005b8381101561093c57815161092388826108c6565b975061092e836108de565b92505060018101905061090f565b5085935050505092915050565b600060a08201905081810360008301526109638188610536565b9050818103602083015261097781876105fe565b9050818103604083015261098b81866106fe565b9050818103606083015261099f818561080a565b905081810360808301526109b381846108eb565b9050969550505050505056fea2646970667358221220046ba777a8adc93feb62af96df63020a3af8de16295614b618e795820673105864736f6c634300080d0033",
  "immutableReferences": {},
  "source": "// SPDX-License-Identifier: GPL-3.0\n\npragma solidity >=0.7.0 <0.9.0;\n\n/**\n * @title Storage\n * @dev Store & retrieve value in a variable\n */\ncontract Encoder {\n\n    /**\n     * @dev Set contract deployer as owner\n     */\n    constructor() {\n    }\n\n    /**\n     * @dev Return value \n     * @return value of 'number'\n     */\n    function encode() public pure returns (bytes memory) {\n        address[] memory targets = new address[](1);\n        uint256[] memory values = new uint256[](1);\n        string[] memory signatures = new string[](1);\n        bytes[] memory calldatas = new bytes[](1);\n        bool[] memory withDelegatecalls = new bool[](1);\n\n        targets[0] = address(0x9473425C4Df4De1A75D0dA949aA907ac10050929);\n        values[0] = uint256(2000000000);\n        signatures[0] = \"store(uint256)\";\n        calldatas[0] = new bytes(0x0000000000000000000000000000000000000000000000000000000000000190);\n        withDelegatecalls[0] = false;\n\n        bytes memory result = abi.encode(targets, values, signatures, calldatas, withDelegatecalls);\n\n        return result;\n    }\n\n}",
  "sourcePath": "/Users/maximvezenov/Documents/ChainSafe/research-projects/chainbridge-generic-txs/contracts/Encoder.sol",
  "compiler": {
    "name": "solc",
    "version": "0.8.13+commit.abaa5c0e.Emscripten.clang"
  },
  "schemaVersion": "3.4.6",
  "updatedAt": "2022-04-11T02:16:08.662Z",
  "networkType": "ethereum",
  "devdoc": {
    "details": "Store & retrieve value in a variable",
    "kind": "dev",
    "methods": {
      "constructor": {
        "details": "Set contract deployer as owner"
      },
      "encode()": {
        "details": "Return value ",
        "returns": {
          "_0": "value of 'number'"
        }
      }
    },
    "title": "Storage",
    "version": 1
  },
  "userdoc": {
    "kind": "user",
    "methods": {},
    "version": 1
  }
}